{
  "_format": "hh-sol-artifact-1",
  "contractName": "CrowdFunding",
  "sourceName": "contracts/CrowdFunding.sol",
  "abi": [
    {
      "inputs": [
        {
          "internalType": "uint256",
          "name": "",
          "type": "uint256"
        }
      ],
      "name": "campaigns",
      "outputs": [
        {
          "internalType": "address",
          "name": "owner",
          "type": "address"
        },
        {
          "internalType": "string",
          "name": "title",
          "type": "string"
        },
        {
          "internalType": "string",
          "name": "description",
          "type": "string"
        },
        {
          "internalType": "uint256",
          "name": "target",
          "type": "uint256"
        },
        {
          "internalType": "uint256",
          "name": "deadline",
          "type": "uint256"
        },
        {
          "internalType": "uint256",
          "name": "amountCollected",
          "type": "uint256"
        }
      ],
      "stateMutability": "view",
      "type": "function"
    },
    {
      "inputs": [
        {
          "internalType": "address",
          "name": "_owner",
          "type": "address"
        },
        {
          "internalType": "string",
          "name": "_title",
          "type": "string"
        },
        {
          "internalType": "string",
          "name": "_description",
          "type": "string"
        },
        {
          "internalType": "uint256",
          "name": "_target",
          "type": "uint256"
        },
        {
          "internalType": "uint256",
          "name": "_deadline",
          "type": "uint256"
        }
      ],
      "name": "createCampaign",
      "outputs": [
        {
          "internalType": "uint256",
          "name": "",
          "type": "uint256"
        }
      ],
      "stateMutability": "nonpayable",
      "type": "function"
    },
    {
      "inputs": [
        {
          "internalType": "uint256",
          "name": "_id",
          "type": "uint256"
        }
      ],
      "name": "donateToCampaign",
      "outputs": [],
      "stateMutability": "payable",
      "type": "function"
    },
    {
      "inputs": [],
      "name": "getCampaigns",
      "outputs": [
        {
          "components": [
            {
              "internalType": "address",
              "name": "owner",
              "type": "address"
            },
            {
              "internalType": "string",
              "name": "title",
              "type": "string"
            },
            {
              "internalType": "string",
              "name": "description",
              "type": "string"
            },
            {
              "internalType": "uint256",
              "name": "target",
              "type": "uint256"
            },
            {
              "internalType": "uint256",
              "name": "deadline",
              "type": "uint256"
            },
            {
              "internalType": "uint256",
              "name": "amountCollected",
              "type": "uint256"
            },
            {
              "internalType": "address[]",
              "name": "donators",
              "type": "address[]"
            },
            {
              "internalType": "uint256[]",
              "name": "donations",
              "type": "uint256[]"
            }
          ],
          "internalType": "struct CrowFunding.Campaign[]",
          "name": "",
          "type": "tuple[]"
        }
      ],
      "stateMutability": "view",
      "type": "function"
    },
    {
      "inputs": [
        {
          "internalType": "uint256",
          "name": "_id",
          "type": "uint256"
        }
      ],
      "name": "getDonators",
      "outputs": [
        {
          "internalType": "address[]",
          "name": "",
          "type": "address[]"
        },
        {
          "internalType": "uint256[]",
          "name": "",
          "type": "uint256[]"
        }
      ],
      "stateMutability": "view",
      "type": "function"
    },
    {
      "inputs": [],
      "name": "numberOfCampaigns",
      "outputs": [
        {
          "internalType": "uint256",
          "name": "",
          "type": "uint256"
        }
      ],
      "stateMutability": "view",
      "type": "function"
    }
  ],
  "bytecode": "0x6080604052600060015534801561001557600080fd5b50611992806100256000396000f3fe6080604052600436106100555760003560e01c806307ca140d1461005a5780630fa91fa914610085578063141961bc146100c357806342a4fda8146101055780637ae4731714610121578063a318f2691461015e575b600080fd5b34801561006657600080fd5b5061006f61019b565b60405161007c9190610b0e565b60405180910390f35b34801561009157600080fd5b506100ac60048036038101906100a79190610b69565b6101a1565b6040516100ba929190610d44565b60405180910390f35b3480156100cf57600080fd5b506100ea60048036038101906100e59190610b69565b6102a6565b6040516100fc96959493929190610e1a565b60405180910390f35b61011f600480360381019061011a9190610b69565b610412565b005b34801561012d57600080fd5b5061014860048036038101906101439190610b69565b6105fe565b6040516101559190611138565b60405180910390f35b34801561016a57600080fd5b506101856004803603810190610180919061128f565b610944565b6040516101929190610b0e565b60405180910390f35b60015481565b6060806000806000858152602001908152602001600020905080600601816007018180548060200260200160405190810160405280929190818152602001828054801561024357602002820191906000526020600020905b8160009054906101000a900473ffffffffffffffffffffffffffffffffffffffff1673ffffffffffffffffffffffffffffffffffffffff16815260200190600101908083116101f9575b505050505091508080548060200260200160405190810160405280929190818152602001828054801561029557602002820191906000526020600020905b815481526020019060010190808311610281575b505050505090509250925050915091565b60006020528060005260406000206000915090508060000160009054906101000a900473ffffffffffffffffffffffffffffffffffffffff16908060010180546102ef9061135d565b80601f016020809104026020016040519081016040528092919081815260200182805461031b9061135d565b80156103685780601f1061033d57610100808354040283529160200191610368565b820191906000526020600020905b81548152906001019060200180831161034b57829003601f168201915b50505050509080600201805461037d9061135d565b80601f01602080910402602001604051908101604052809291908181526020018280546103a99061135d565b80156103f65780601f106103cb576101008083540402835291602001916103f6565b820191906000526020600020905b8154815290600101906020018083116103d957829003601f168201915b5050505050908060030154908060040154908060050154905086565b60003490506000811161045a576040517f08c379a000000000000000000000000000000000000000000000000000000000815260040161045190611400565b60405180910390fd5b60008060008481526020019081526020016000209050806004015442106104b6576040517f08c379a00000000000000000000000000000000000000000000000000000000081526004016104ad9061146c565b60405180910390fd5b80600601339080600181540180825580915050600190039060005260206000200160009091909190916101000a81548173ffffffffffffffffffffffffffffffffffffffff021916908373ffffffffffffffffffffffffffffffffffffffff1602179055508060070182908060018154018082558091505060019003906000526020600020016000909190919091505560008160000160009054906101000a900473ffffffffffffffffffffffffffffffffffffffff1673ffffffffffffffffffffffffffffffffffffffff1683604051610590906114bd565b60006040518083038185875af1925050503d80600081146105cd576040519150601f19603f3d011682016040523d82523d6000602084013e6105d2565b606091505b5050905080156105f857828260050160008282546105f09190611501565b925050819055505b50505050565b6060600060015467ffffffffffffffff81111561061e5761061d611164565b5b60405190808252806020026020018201604052801561065757816020015b610644610a9a565b81526020019060019003908161063c5790505b50905060005b60015481101561093a576000806000838152602001908152602001600020905080604051806101000160405290816000820160009054906101000a900473ffffffffffffffffffffffffffffffffffffffff1673ffffffffffffffffffffffffffffffffffffffff1673ffffffffffffffffffffffffffffffffffffffff1681526020016001820180546106f09061135d565b80601f016020809104026020016040519081016040528092919081815260200182805461071c9061135d565b80156107695780601f1061073e57610100808354040283529160200191610769565b820191906000526020600020905b81548152906001019060200180831161074c57829003601f168201915b505050505081526020016002820180546107829061135d565b80601f01602080910402602001604051908101604052809291908181526020018280546107ae9061135d565b80156107fb5780601f106107d0576101008083540402835291602001916107fb565b820191906000526020600020905b8154815290600101906020018083116107de57829003601f168201915b50505050508152602001600382015481526020016004820154815260200160058201548152602001600682018054806020026020016040519081016040528092919081815260200182805480156108a757602002820191906000526020600020905b8160009054906101000a900473ffffffffffffffffffffffffffffffffffffffff1673ffffffffffffffffffffffffffffffffffffffff168152602001906001019080831161085d575b50505050508152602001600782018054806020026020016040519081016040528092919081815260200182805480156108ff57602002820191906000526020600020905b8154815260200190600101908083116108eb575b50505050508152505083838151811061091b5761091a611535565b5b602002602001018190525050808061093290611564565b91505061065d565b5080915050919050565b6000428211610988576040517f08c379a000000000000000000000000000000000000000000000000000000000815260040161097f906115f8565b60405180910390fd5b600080600060015481526020019081526020016000209050428160040154106109e6576040517f08c379a00000000000000000000000000000000000000000000000000000000081526004016109dd9061168a565b60405180910390fd5b338160000160006101000a81548173ffffffffffffffffffffffffffffffffffffffff021916908373ffffffffffffffffffffffffffffffffffffffff16021790555085816001019081610a3a9190611856565b5084816002019081610a4c9190611856565b508381600301819055508281600401819055506000816005018190555060016000815480929190610a7c90611564565b919050555060018054610a8f9190611928565b915050949350505050565b604051806101000160405280600073ffffffffffffffffffffffffffffffffffffffff168152602001606081526020016060815260200160008152602001600081526020016000815260200160608152602001606081525090565b6000819050919050565b610b0881610af5565b82525050565b6000602082019050610b236000830184610aff565b92915050565b6000604051905090565b600080fd5b600080fd5b610b4681610af5565b8114610b5157600080fd5b50565b600081359050610b6381610b3d565b92915050565b600060208284031215610b7f57610b7e610b33565b5b6000610b8d84828501610b54565b91505092915050565b600081519050919050565b600082825260208201905092915050565b6000819050602082019050919050565b600073ffffffffffffffffffffffffffffffffffffffff82169050919050565b6000610bed82610bc2565b9050919050565b610bfd81610be2565b82525050565b6000610c0f8383610bf4565b60208301905092915050565b6000602082019050919050565b6000610c3382610b96565b610c3d8185610ba1565b9350610c4883610bb2565b8060005b83811015610c79578151610c608882610c03565b9750610c6b83610c1b565b925050600181019050610c4c565b5085935050505092915050565b600081519050919050565b600082825260208201905092915050565b6000819050602082019050919050565b610cbb81610af5565b82525050565b6000610ccd8383610cb2565b60208301905092915050565b6000602082019050919050565b6000610cf182610c86565b610cfb8185610c91565b9350610d0683610ca2565b8060005b83811015610d37578151610d1e8882610cc1565b9750610d2983610cd9565b925050600181019050610d0a565b5085935050505092915050565b60006040820190508181036000830152610d5e8185610c28565b90508181036020830152610d728184610ce6565b90509392505050565b610d8481610be2565b82525050565b600081519050919050565b600082825260208201905092915050565b60005b83811015610dc4578082015181840152602081019050610da9565b60008484015250505050565b6000601f19601f8301169050919050565b6000610dec82610d8a565b610df68185610d95565b9350610e06818560208601610da6565b610e0f81610dd0565b840191505092915050565b600060c082019050610e2f6000830189610d7b565b8181036020830152610e418188610de1565b90508181036040830152610e558187610de1565b9050610e646060830186610aff565b610e716080830185610aff565b610e7e60a0830184610aff565b979650505050505050565b600081519050919050565b600082825260208201905092915050565b6000819050602082019050919050565b600082825260208201905092915050565b6000610ed182610d8a565b610edb8185610eb5565b9350610eeb818560208601610da6565b610ef481610dd0565b840191505092915050565b600082825260208201905092915050565b6000610f1b82610b96565b610f258185610eff565b9350610f3083610bb2565b8060005b83811015610f61578151610f488882610c03565b9750610f5383610c1b565b925050600181019050610f34565b5085935050505092915050565b600082825260208201905092915050565b6000610f8a82610c86565b610f948185610f6e565b9350610f9f83610ca2565b8060005b83811015610fd0578151610fb78882610cc1565b9750610fc283610cd9565b925050600181019050610fa3565b5085935050505092915050565b600061010083016000830151610ff66000860182610bf4565b506020830151848203602086015261100e8282610ec6565b915050604083015184820360408601526110288282610ec6565b915050606083015161103d6060860182610cb2565b5060808301516110506080860182610cb2565b5060a083015161106360a0860182610cb2565b5060c083015184820360c086015261107b8282610f10565b91505060e083015184820360e08601526110958282610f7f565b9150508091505092915050565b60006110ae8383610fdd565b905092915050565b6000602082019050919050565b60006110ce82610e89565b6110d88185610e94565b9350836020820285016110ea85610ea5565b8060005b85811015611126578484038952815161110785826110a2565b9450611112836110b6565b925060208a019950506001810190506110ee565b50829750879550505050505092915050565b6000602082019050818103600083015261115281846110c3565b905092915050565b600080fd5b600080fd5b7f4e487b7100000000000000000000000000000000000000000000000000000000600052604160045260246000fd5b61119c82610dd0565b810181811067ffffffffffffffff821117156111bb576111ba611164565b5b80604052505050565b60006111ce610b29565b90506111da8282611193565b919050565b600067ffffffffffffffff8211156111fa576111f9611164565b5b61120382610dd0565b9050602081019050919050565b82818337600083830152505050565b600061123261122d846111df565b6111c4565b90508281526020810184848401111561124e5761124d61115f565b5b611259848285611210565b509392505050565b600082601f8301126112765761127561115a565b5b813561128684826020860161121f565b91505092915050565b600080600080608085870312156112a9576112a8610b33565b5b600085013567ffffffffffffffff8111156112c7576112c6610b38565b5b6112d387828801611261565b945050602085013567ffffffffffffffff8111156112f4576112f3610b38565b5b61130087828801611261565b935050604061131187828801610b54565b925050606061132287828801610b54565b91505092959194509250565b7f4e487b7100000000000000000000000000000000000000000000000000000000600052602260045260246000fd5b6000600282049050600182168061137557607f821691505b6020821081036113885761138761132e565b5b50919050565b7f446f6e6174696f6e20616d6f756e74206d75737420626520677265617465722060008201527f7468616e207a65726f0000000000000000000000000000000000000000000000602082015250565b60006113ea602983610d95565b91506113f58261138e565b604082019050919050565b60006020820190508181036000830152611419816113dd565b9050919050565b7f5468652063616d706169676e2068617320656e64656400000000000000000000600082015250565b6000611456601683610d95565b915061146182611420565b602082019050919050565b6000602082019050818103600083015261148581611449565b9050919050565b600081905092915050565b50565b60006114a760008361148c565b91506114b282611497565b600082019050919050565b60006114c88261149a565b9150819050919050565b7f4e487b7100000000000000000000000000000000000000000000000000000000600052601160045260246000fd5b600061150c82610af5565b915061151783610af5565b925082820190508082111561152f5761152e6114d2565b5b92915050565b7f4e487b7100000000000000000000000000000000000000000000000000000000600052603260045260246000fd5b600061156f82610af5565b91507fffffffffffffffffffffffffffffffffffffffffffffffffffffffffffffffff82036115a1576115a06114d2565b5b600182019050919050565b7f446561646c696e652073686f756c6420626520696e2074686520667574757265600082015250565b60006115e2602083610d95565b91506115ed826115ac565b602082019050919050565b60006020820190508181036000830152611611816115d5565b9050919050565b7f54686520646561646c696e652073686f756c642062652061206461746520696e60008201527f2074686520667574757265000000000000000000000000000000000000000000602082015250565b6000611674602b83610d95565b915061167f82611618565b604082019050919050565b600060208201905081810360008301526116a381611667565b9050919050565b60008190508160005260206000209050919050565b60006020601f8301049050919050565b600082821b905092915050565b60006008830261170c7fffffffffffffffffffffffffffffffffffffffffffffffffffffffffffffffff826116cf565b61171686836116cf565b95508019841693508086168417925050509392505050565b6000819050919050565b600061175361174e61174984610af5565b61172e565b610af5565b9050919050565b6000819050919050565b61176d83611738565b6117816117798261175a565b8484546116dc565b825550505050565b600090565b611796611789565b6117a1818484611764565b505050565b5b818110156117c5576117ba60008261178e565b6001810190506117a7565b5050565b601f82111561180a576117db816116aa565b6117e4846116bf565b810160208510156117f3578190505b6118076117ff856116bf565b8301826117a6565b50505b505050565b600082821c905092915050565b600061182d6000198460080261180f565b1980831691505092915050565b6000611846838361181c565b9150826002028217905092915050565b61185f82610d8a565b67ffffffffffffffff81111561187857611877611164565b5b611882825461135d565b61188d8282856117c9565b600060209050601f8311600181146118c057600084156118ae578287015190505b6118b8858261183a565b865550611920565b601f1984166118ce866116aa565b60005b828110156118f6578489015182556001820191506020850194506020810190506118d1565b86831015611913578489015161190f601f89168261181c565b8355505b6001600288020188555050505b505050505050565b600061193382610af5565b915061193e83610af5565b9250828203905081811115611956576119556114d2565b5b9291505056fea26469706673582212206b63699183189a12bda7573fc809d8f17b1e1a5a13ed070c59244f30e75bd7c564736f6c63430008120033",
  "linkReferences": {},
  "deployedLinkReferences": {}
}